{
  "_format": "hh-sol-artifact-1",
  "contractName": "WavePortal",
  "sourceName": "contracts/WavePortal.sol",
  "abi": [
    {
      "inputs": [],
      "stateMutability": "payable",
      "type": "constructor"
    },
    {
      "anonymous": false,
      "inputs": [
        {
          "indexed": true,
          "internalType": "address",
          "name": "from",
          "type": "address"
        },
        {
          "indexed": false,
          "internalType": "uint256",
          "name": "timestamp",
          "type": "uint256"
        },
        {
          "indexed": false,
          "internalType": "string",
          "name": "message",
          "type": "string"
        },
        {
          "indexed": false,
          "internalType": "string",
          "name": "countryCode",
          "type": "string"
        }
      ],
      "name": "NewWave",
      "type": "event"
    },
    {
      "inputs": [],
      "name": "getAllWaves",
      "outputs": [
        {
          "components": [
            {
              "internalType": "address",
              "name": "waver",
              "type": "address"
            },
            {
              "internalType": "string",
              "name": "message",
              "type": "string"
            },
            {
              "internalType": "string",
              "name": "countryCode",
              "type": "string"
            },
            {
              "internalType": "uint256",
              "name": "timestamp",
              "type": "uint256"
            }
          ],
          "internalType": "struct WavePortal.Wave[]",
          "name": "",
          "type": "tuple[]"
        }
      ],
      "stateMutability": "view",
      "type": "function"
    },
    {
      "inputs": [],
      "name": "getTotalWaves",
      "outputs": [
        {
          "internalType": "uint256",
          "name": "",
          "type": "uint256"
        }
      ],
      "stateMutability": "view",
      "type": "function"
    },
    {
      "inputs": [
        {
          "internalType": "address",
          "name": "",
          "type": "address"
        }
      ],
      "name": "lastWavedAt",
      "outputs": [
        {
          "internalType": "uint256",
          "name": "",
          "type": "uint256"
        }
      ],
      "stateMutability": "view",
      "type": "function"
    },
    {
      "inputs": [
        {
          "internalType": "string",
          "name": "_message",
          "type": "string"
        },
        {
          "internalType": "string",
          "name": "_countryCode",
          "type": "string"
        }
      ],
      "name": "wave",
      "outputs": [],
      "stateMutability": "nonpayable",
      "type": "function"
    }
  ],
  "bytecode": "0x60806040526200004f6040518060400160405280601981526020017f57652068617665206265656e20636f6e737472756374656421000000000000008152506200007760201b620006fe1760201c565b606444426200005f9190620001c4565b6200006b919062000261565b60018190555062000308565b62000117816040516024016200008e919062000184565b6040516020818303038152906040527f41304fac000000000000000000000000000000000000000000000000000000007bffffffffffffffffffffffffffffffffffffffffffffffffffffffff19166020820180517bffffffffffffffffffffffffffffffffffffffffffffffffffffffff83818316178352505050506200011a60201b60201c565b50565b60008151905060006a636f6e736f6c652e6c6f679050602083016000808483855afa5050505050565b60006200015082620001a8565b6200015c8185620001b3565b93506200016e8185602086016200022b565b6200017981620002f7565b840191505092915050565b60006020820190508181036000830152620001a0818462000143565b905092915050565b600081519050919050565b600082825260208201905092915050565b6000620001d18262000221565b9150620001de8362000221565b9250827fffffffffffffffffffffffffffffffffffffffffffffffffffffffffffffffff0382111562000216576200021562000299565b5b828201905092915050565b6000819050919050565b60005b838110156200024b5780820151818401526020810190506200022e565b838111156200025b576000848401525b50505050565b60006200026e8262000221565b91506200027b8362000221565b9250826200028e576200028d620002c8565b5b828206905092915050565b7f4e487b7100000000000000000000000000000000000000000000000000000000600052601160045260246000fd5b7f4e487b7100000000000000000000000000000000000000000000000000000000600052601260045260246000fd5b6000601f19601f8301169050919050565b61123680620003186000396000f3fe608060405234801561001057600080fd5b506004361061004c5760003560e01c806351872959146100515780639a2cdc081461006d578063a42a46631461008b578063bd43a908146100bb575b600080fd5b61006b60048036038101906100669190610a41565b6100d9565b005b6100756104fa565b6040516100829190610eb3565b60405180910390f35b6100a560048036038101906100a09190610a18565b610503565b6040516100b29190610eb3565b60405180910390f35b6100c361051b565b6040516100d09190610daf565b60405180910390f35b42610384600360003373ffffffffffffffffffffffffffffffffffffffff1673ffffffffffffffffffffffffffffffffffffffff168152602001908152602001600020546101279190610fe5565b10610167576040517f08c379a000000000000000000000000000000000000000000000000000000000815260040161015e90610e93565b60405180910390fd5b42600360003373ffffffffffffffffffffffffffffffffffffffff1673ffffffffffffffffffffffffffffffffffffffff1681526020019081526020016000208190555060016000808282546101bd9190610fe5565b925050819055506102036040518060400160405280600d81526020017f257320686173207761766564210000000000000000000000000000000000000081525033610797565b600260405180608001604052803373ffffffffffffffffffffffffffffffffffffffff16815260200184815260200183815260200142815250908060018154018082558091505060019003906000526020600020906004020160009091909190915060008201518160000160006101000a81548173ffffffffffffffffffffffffffffffffffffffff021916908373ffffffffffffffffffffffffffffffffffffffff16021790555060208201518160010190805190602001906102c89291906108f8565b5060408201518160020190805190602001906102e59291906108f8565b50606082015181600301555050606460015442446103039190610fe5565b61030d9190610fe5565b61031791906110eb565b60018190555061035e6040518060400160405280601681526020017f52616e646f6d20232067656e6572617465643a20256400000000000000000000815250600154610833565b600a600154116104a4576103a76040518060400160405280600781526020017f257320776f6e210000000000000000000000000000000000000000000000000081525033610797565b6000655af3107a40009050478111156103f5576040517f08c379a00000000000000000000000000000000000000000000000000000000081526004016103ec90610e53565b60405180910390fd5b60003373ffffffffffffffffffffffffffffffffffffffff168260405161041b90610d9a565b60006040518083038185875af1925050503d8060008114610458576040519150601f19603f3d011682016040523d82523d6000602084013e61045d565b606091505b50509050806104a1576040517f08c379a000000000000000000000000000000000000000000000000000000000815260040161049890610e73565b60405180910390fd5b50505b3373ffffffffffffffffffffffffffffffffffffffff167f0646f10b0148fe8db9a43af10b6956b53e1478c47afc7132c17e243449dfd3394284846040516104ee93929190610ece565b60405180910390a25050565b60008054905090565b60036020528060005260406000206000915090505481565b60606002805480602002602001604051908101604052809291908181526020016000905b828210156106f557838290600052602060002090600402016040518060800160405290816000820160009054906101000a900473ffffffffffffffffffffffffffffffffffffffff1673ffffffffffffffffffffffffffffffffffffffff1673ffffffffffffffffffffffffffffffffffffffff1681526020016001820180546105c8906110b9565b80601f01602080910402602001604051908101604052809291908181526020018280546105f4906110b9565b80156106415780601f1061061657610100808354040283529160200191610641565b820191906000526020600020905b81548152906001019060200180831161062457829003601f168201915b5050505050815260200160028201805461065a906110b9565b80601f0160208091040260200160405190810160405280929190818152602001828054610686906110b9565b80156106d35780601f106106a8576101008083540402835291602001916106d3565b820191906000526020600020905b8154815290600101906020018083116106b657829003601f168201915b505050505081526020016003820154815250508152602001906001019061053f565b50505050905090565b610794816040516024016107129190610dd1565b6040516020818303038152906040527f41304fac000000000000000000000000000000000000000000000000000000007bffffffffffffffffffffffffffffffffffffffffffffffffffffffff19166020820180517bffffffffffffffffffffffffffffffffffffffffffffffffffffffff83818316178352505050506108cf565b50565b61082f82826040516024016107ad929190610df3565b6040516020818303038152906040527f319af333000000000000000000000000000000000000000000000000000000007bffffffffffffffffffffffffffffffffffffffffffffffffffffffff19166020820180517bffffffffffffffffffffffffffffffffffffffffffffffffffffffff83818316178352505050506108cf565b5050565b6108cb8282604051602401610849929190610e23565b6040516020818303038152906040527f9710a9d0000000000000000000000000000000000000000000000000000000007bffffffffffffffffffffffffffffffffffffffffffffffffffffffff19166020820180517bffffffffffffffffffffffffffffffffffffffffffffffffffffffff83818316178352505050506108cf565b5050565b60008151905060006a636f6e736f6c652e6c6f679050602083016000808483855afa5050505050565b828054610904906110b9565b90600052602060002090601f016020900481019282610926576000855561096d565b82601f1061093f57805160ff191683800117855561096d565b8280016001018555821561096d579182015b8281111561096c578251825591602001919060010190610951565b5b50905061097a919061097e565b5090565b5b8082111561099757600081600090555060010161097f565b5090565b60006109ae6109a984610f44565b610f13565b9050828152602081018484840111156109c657600080fd5b6109d1848285611077565b509392505050565b6000813590506109e8816111e9565b92915050565b600082601f8301126109ff57600080fd5b8135610a0f84826020860161099b565b91505092915050565b600060208284031215610a2a57600080fd5b6000610a38848285016109d9565b91505092915050565b60008060408385031215610a5457600080fd5b600083013567ffffffffffffffff811115610a6e57600080fd5b610a7a858286016109ee565b925050602083013567ffffffffffffffff811115610a9757600080fd5b610aa3858286016109ee565b9150509250929050565b6000610ab98383610d12565b905092915050565b610aca8161103b565b82525050565b610ad98161103b565b82525050565b6000610aea82610f84565b610af48185610fa7565b935083602082028501610b0685610f74565b8060005b85811015610b425784840389528151610b238582610aad565b9450610b2e83610f9a565b925060208a01995050600181019050610b0a565b50829750879550505050505092915050565b6000610b5f82610f8f565b610b698185610fc3565b9350610b79818560208601611086565b610b82816111d8565b840191505092915050565b6000610b9882610f8f565b610ba28185610fd4565b9350610bb2818560208601611086565b610bbb816111d8565b840191505092915050565b6000610bd3603483610fd4565b91507f547279696e6720746f207769746864726177206d6f7265206d6f6e657920746860008301527f616e2074686520636f6e7472616374206861732e0000000000000000000000006020830152604082019050919050565b6000610c39602783610fd4565b91507f4661696c656420746f207769746864726177206d6f6e65792066726f6d20636f60008301527f6e74726163742e000000000000000000000000000000000000000000000000006020830152604082019050919050565b6000610c9f602d83610fd4565b91507f596f75206d7573742077616974203135206d696e75746573206265666f72652060008301527f747279696e6720616761696e2e000000000000000000000000000000000000006020830152604082019050919050565b6000610d05600083610fb8565b9150600082019050919050565b6000608083016000830151610d2a6000860182610ac1565b5060208301518482036020860152610d428282610b54565b91505060408301518482036040860152610d5c8282610b54565b9150506060830151610d716060860182610d7c565b508091505092915050565b610d858161106d565b82525050565b610d948161106d565b82525050565b6000610da582610cf8565b9150819050919050565b60006020820190508181036000830152610dc98184610adf565b905092915050565b60006020820190508181036000830152610deb8184610b8d565b905092915050565b60006040820190508181036000830152610e0d8185610b8d565b9050610e1c6020830184610ad0565b9392505050565b60006040820190508181036000830152610e3d8185610b8d565b9050610e4c6020830184610d8b565b9392505050565b60006020820190508181036000830152610e6c81610bc6565b9050919050565b60006020820190508181036000830152610e8c81610c2c565b9050919050565b60006020820190508181036000830152610eac81610c92565b9050919050565b6000602082019050610ec86000830184610d8b565b92915050565b6000606082019050610ee36000830186610d8b565b8181036020830152610ef58185610b8d565b90508181036040830152610f098184610b8d565b9050949350505050565b6000604051905081810181811067ffffffffffffffff82111715610f3a57610f396111a9565b5b8060405250919050565b600067ffffffffffffffff821115610f5f57610f5e6111a9565b5b601f19601f8301169050602081019050919050565b6000819050602082019050919050565b600081519050919050565b600081519050919050565b6000602082019050919050565b600082825260208201905092915050565b600081905092915050565b600082825260208201905092915050565b600082825260208201905092915050565b6000610ff08261106d565b9150610ffb8361106d565b9250827fffffffffffffffffffffffffffffffffffffffffffffffffffffffffffffffff038211156110305761102f61111c565b5b828201905092915050565b60006110468261104d565b9050919050565b600073ffffffffffffffffffffffffffffffffffffffff82169050919050565b6000819050919050565b82818337600083830152505050565b60005b838110156110a4578082015181840152602081019050611089565b838111156110b3576000848401525b50505050565b600060028204905060018216806110d157607f821691505b602082108114156110e5576110e461117a565b5b50919050565b60006110f68261106d565b91506111018361106d565b9250826111115761111061114b565b5b828206905092915050565b7f4e487b7100000000000000000000000000000000000000000000000000000000600052601160045260246000fd5b7f4e487b7100000000000000000000000000000000000000000000000000000000600052601260045260246000fd5b7f4e487b7100000000000000000000000000000000000000000000000000000000600052602260045260246000fd5b7f4e487b7100000000000000000000000000000000000000000000000000000000600052604160045260246000fd5b6000601f19601f8301169050919050565b6111f28161103b565b81146111fd57600080fd5b5056fea264697066735822122055e21870bc871f7943eb3080a1cfb86a60439f63f8b8b5ab3f4ff01c0513809e64736f6c63430008000033",
  "linkReferences": {},
  "deployedLinkReferences": {}
}